:100000000C9434000C9448000C9446000C94460068
:100010000C9446000C9446000C9446000C94460048
:100020000C9446000C9446000C9446000C94460038
:100030000C9446000C9446000C9446000C94460028
:100040000C9446000C9446000C9446000C94460018
:100050000C9446000C9446000C9446000C94460008
:100060000C9446000C94460011241FBECFEFD8E03C
:10007000DEBFCDBF21E0A0E0B1E001C01D92A33002
:10008000B207E1F70E9481000C94AF010C940000CC
:100090001F920F920FB60F9211248F934A9908C0A6
:1000A00080910001811125C081E08093000121C071
:1000B0004A9B21C0809100018823E9F080910101D1
:1000C000811104C081E08093010110C0813021F4CE
:1000D00082E0809301010AC0823021F483E08093A2
:1000E000010104C0833011F410920101109200014B
:1000F00002C04A99E3CF8F910F900FBE0F901F90CF
:1001000018950E949B0180910101811102C00E94FB
:10011000C90080910101813011F40E94E4008091B6
:100120000101823011F40E9420018091010183308D
:1001300011F40E945C018FE39FE10197F1F700C089
:100140000000E1CF84E080930201089580910201D4
:10015000880F8093020195B1892B85B9089580910C
:10016000020186958093020195B1892B85B9089586
:100170000E94A200809102018295807F80930201FB
:1001800008950E94A2008091020186958093020149
:1001900008952D9A2C9A2B9A2A9A2FEF83EC99E0A6
:1001A000215080409040E1F700C000002D982C982D
:1001B0002B982A982FEF83EC99E0215080409040B3
:1001C000E1F700C0000008950E94B8000E94AF004F
:1001D0002FEF83EC99E0215080409040E1F700C080
:1001E00000000E94AF002FEF83EC99E02150804087
:1001F0009040E1F700C000000E94AF002FEF83ECB9
:1002000099E0215080409040E1F700C000000E943A
:10021000AF002FEF83EC99E0215080409040E1F750
:1002200000C000002D982C982B982A982FEF83EC73
:1002300099E0215080409040E1F700C0000008950F
:100240000E94C1000E94A6002FEF83EC99E021508C
:1002500080409040E1F700C000000E94A6002FEF10
:1002600083EC99E0215080409040E1F700C000000D
:100270000E94A6002FEF83EC99E02150804090402F
:10028000E1F700C000000E94A6002FEF83EC99E088
:10029000215080409040E1F700C000002D982C983C
:1002A0002B982A982FEF83EC99E0215080409040C2
:1002B000E1F700C0000008952D982C982B982A98FB
:1002C00088E28093020185B1886285B92FEF83ECC3
:1002D00099E0215080409040E1F700C000002D9847
:1002E0002C982B982A982FEF83EC99E0215080408E
:1002F0009040E1F700C0000084E18093020185B1E5
:10030000846185B92FEF83EC99E0215080409040C3
:10031000E1F700C000002D982C982B982A982FEF19
:1003200083EC99E0215080409040E1F700C000004C
:100330000E94A200089552985A9A259A2D98249ABC
:100340002C98239A2B98229A2A98E9E6F0E080814B
:1003500081608083E89A78940E94A2000895F894BE
:02036000FFCFCD
:00000001FF
